{
  "contractName": "NFT",
  "abi": [
    {
      "inputs": [],
      "stateMutability": "nonpayable",
      "type": "constructor"
    },
    {
      "anonymous": false,
      "inputs": [
        {
          "indexed": true,
          "internalType": "address",
          "name": "owner",
          "type": "address"
        },
        {
          "indexed": true,
          "internalType": "address",
          "name": "approved",
          "type": "address"
        },
        {
          "indexed": true,
          "internalType": "uint256",
          "name": "tokenId",
          "type": "uint256"
        }
      ],
      "name": "Approval",
      "type": "event"
    },
    {
      "anonymous": false,
      "inputs": [
        {
          "indexed": true,
          "internalType": "address",
          "name": "owner",
          "type": "address"
        },
        {
          "indexed": true,
          "internalType": "address",
          "name": "operator",
          "type": "address"
        },
        {
          "indexed": false,
          "internalType": "bool",
          "name": "approved",
          "type": "bool"
        }
      ],
      "name": "ApprovalForAll",
      "type": "event"
    },
    {
      "anonymous": false,
      "inputs": [
        {
          "indexed": true,
          "internalType": "address",
          "name": "from",
          "type": "address"
        },
        {
          "indexed": true,
          "internalType": "address",
          "name": "to",
          "type": "address"
        },
        {
          "indexed": true,
          "internalType": "uint256",
          "name": "tokenId",
          "type": "uint256"
        }
      ],
      "name": "Transfer",
      "type": "event"
    },
    {
      "inputs": [
        {
          "internalType": "address",
          "name": "to",
          "type": "address"
        },
        {
          "internalType": "uint256",
          "name": "tokenId",
          "type": "uint256"
        }
      ],
      "name": "approve",
      "outputs": [],
      "stateMutability": "nonpayable",
      "type": "function"
    },
    {
      "inputs": [
        {
          "internalType": "address",
          "name": "owner",
          "type": "address"
        }
      ],
      "name": "balanceOf",
      "outputs": [
        {
          "internalType": "uint256",
          "name": "",
          "type": "uint256"
        }
      ],
      "stateMutability": "view",
      "type": "function"
    },
    {
      "inputs": [
        {
          "internalType": "uint256",
          "name": "tokenId",
          "type": "uint256"
        }
      ],
      "name": "getApproved",
      "outputs": [
        {
          "internalType": "address",
          "name": "",
          "type": "address"
        }
      ],
      "stateMutability": "view",
      "type": "function"
    },
    {
      "inputs": [
        {
          "internalType": "address",
          "name": "owner",
          "type": "address"
        },
        {
          "internalType": "address",
          "name": "operator",
          "type": "address"
        }
      ],
      "name": "isApprovedForAll",
      "outputs": [
        {
          "internalType": "bool",
          "name": "",
          "type": "bool"
        }
      ],
      "stateMutability": "view",
      "type": "function"
    },
    {
      "inputs": [],
      "name": "name",
      "outputs": [
        {
          "internalType": "string",
          "name": "",
          "type": "string"
        }
      ],
      "stateMutability": "view",
      "type": "function"
    },
    {
      "inputs": [
        {
          "internalType": "uint256",
          "name": "tokenId",
          "type": "uint256"
        }
      ],
      "name": "ownerOf",
      "outputs": [
        {
          "internalType": "address",
          "name": "",
          "type": "address"
        }
      ],
      "stateMutability": "view",
      "type": "function"
    },
    {
      "inputs": [
        {
          "internalType": "address",
          "name": "from",
          "type": "address"
        },
        {
          "internalType": "address",
          "name": "to",
          "type": "address"
        },
        {
          "internalType": "uint256",
          "name": "tokenId",
          "type": "uint256"
        }
      ],
      "name": "safeTransferFrom",
      "outputs": [],
      "stateMutability": "nonpayable",
      "type": "function"
    },
    {
      "inputs": [
        {
          "internalType": "address",
          "name": "from",
          "type": "address"
        },
        {
          "internalType": "address",
          "name": "to",
          "type": "address"
        },
        {
          "internalType": "uint256",
          "name": "tokenId",
          "type": "uint256"
        },
        {
          "internalType": "bytes",
          "name": "data",
          "type": "bytes"
        }
      ],
      "name": "safeTransferFrom",
      "outputs": [],
      "stateMutability": "nonpayable",
      "type": "function"
    },
    {
      "inputs": [
        {
          "internalType": "address",
          "name": "operator",
          "type": "address"
        },
        {
          "internalType": "bool",
          "name": "approved",
          "type": "bool"
        }
      ],
      "name": "setApprovalForAll",
      "outputs": [],
      "stateMutability": "nonpayable",
      "type": "function"
    },
    {
      "inputs": [
        {
          "internalType": "bytes4",
          "name": "interfaceId",
          "type": "bytes4"
        }
      ],
      "name": "supportsInterface",
      "outputs": [
        {
          "internalType": "bool",
          "name": "",
          "type": "bool"
        }
      ],
      "stateMutability": "view",
      "type": "function"
    },
    {
      "inputs": [],
      "name": "symbol",
      "outputs": [
        {
          "internalType": "string",
          "name": "",
          "type": "string"
        }
      ],
      "stateMutability": "view",
      "type": "function"
    },
    {
      "inputs": [
        {
          "internalType": "uint256",
          "name": "tokenId",
          "type": "uint256"
        }
      ],
      "name": "tokenURI",
      "outputs": [
        {
          "internalType": "string",
          "name": "",
          "type": "string"
        }
      ],
      "stateMutability": "view",
      "type": "function"
    },
    {
      "inputs": [
        {
          "internalType": "address",
          "name": "from",
          "type": "address"
        },
        {
          "internalType": "address",
          "name": "to",
          "type": "address"
        },
        {
          "internalType": "uint256",
          "name": "tokenId",
          "type": "uint256"
        }
      ],
      "name": "transferFrom",
      "outputs": [],
      "stateMutability": "nonpayable",
      "type": "function"
    },
    {
      "inputs": [
        {
          "internalType": "string",
          "name": "tokenURI",
          "type": "string"
        }
      ],
      "name": "createToken",
      "outputs": [
        {
          "internalType": "uint256",
          "name": "",
          "type": "uint256"
        }
      ],
      "stateMutability": "payable",
      "type": "function"
    }
  ],
  "bytecode": "0x60806040523480156200001157600080fd5b506040518060400160405280600e81526020017f4e465420627920546f6d693230340000000000000000000000000000000000008152506040518060400160405280600481526020017f454e46540000000000000000000000000000000000000000000000000000000081525081600090816200008f919062000365565b508060019081620000a1919062000365565b50505033600860006101000a81548173ffffffffffffffffffffffffffffffffffffffff021916908373ffffffffffffffffffffffffffffffffffffffff1602179055506200044c565b600081519050919050565b7f4e487b7100000000000000000000000000000000000000000000000000000000600052604160045260246000fd5b7f4e487b7100000000000000000000000000000000000000000000000000000000600052602260045260246000fd5b600060028204905060018216806200016d57607f821691505b60208210810362000183576200018262000125565b5b50919050565b60008190508160005260206000209050919050565b60006020601f8301049050919050565b600082821b905092915050565b600060088302620001ed7fffffffffffffffffffffffffffffffffffffffffffffffffffffffffffffffff82620001ae565b620001f98683620001ae565b95508019841693508086168417925050509392505050565b6000819050919050565b6000819050919050565b600062000246620002406200023a8462000211565b6200021b565b62000211565b9050919050565b6000819050919050565b620002628362000225565b6200027a62000271826200024d565b848454620001bb565b825550505050565b600090565b6200029162000282565b6200029e81848462000257565b505050565b5b81811015620002c657620002ba60008262000287565b600181019050620002a4565b5050565b601f8211156200031557620002df8162000189565b620002ea846200019e565b81016020851015620002fa578190505b6200031262000309856200019e565b830182620002a3565b50505b505050565b600082821c905092915050565b60006200033a600019846008026200031a565b1980831691505092915050565b600062000355838362000327565b9150826002028217905092915050565b6200037082620000eb565b67ffffffffffffffff8111156200038c576200038b620000f6565b5b62000398825462000154565b620003a5828285620002ca565b600060209050601f831160018114620003dd5760008415620003c8578287015190505b620003d4858262000347565b86555062000444565b601f198416620003ed8662000189565b60005b828110156200041757848901518255600182019150602085019450602081019050620003f0565b8683101562000437578489015162000433601f89168262000327565b8355505b6001600288020188555050505b505050505050565b612b19806200045c6000396000f3fe6080604052600436106100dd5760003560e01c80636352211e1161007f578063a22cb46511610059578063a22cb465146102d7578063b88d4fde14610300578063c87b56dd14610329578063e985e9c514610366576100dd565b80636352211e1461023257806370a082311461026f57806395d89b41146102ac576100dd565b8063095ea7b3116100bb578063095ea7b31461018757806323b872dd146101b057806342842e0e146101d957806345576f9414610202576100dd565b806301ffc9a7146100e257806306fdde031461011f578063081812fc1461014a575b600080fd5b3480156100ee57600080fd5b50610109600480360381019061010491906118ab565b6103a3565b60405161011691906118f3565b60405180910390f35b34801561012b57600080fd5b50610134610485565b604051610141919061199e565b60405180910390f35b34801561015657600080fd5b50610171600480360381019061016c91906119f6565b610517565b60405161017e9190611a64565b60405180910390f35b34801561019357600080fd5b506101ae60048036038101906101a99190611aab565b61055d565b005b3480156101bc57600080fd5b506101d760048036038101906101d29190611aeb565b610674565b005b3480156101e557600080fd5b5061020060048036038101906101fb9190611aeb565b6106d4565b005b61021c60048036038101906102179190611c73565b6106f4565b6040516102299190611ccb565b60405180910390f35b34801561023e57600080fd5b50610259600480360381019061025491906119f6565b610785565b6040516102669190611a64565b60405180910390f35b34801561027b57600080fd5b5061029660048036038101906102919190611ce6565b610836565b6040516102a39190611ccb565b60405180910390f35b3480156102b857600080fd5b506102c16108ed565b6040516102ce919061199e565b60405180910390f35b3480156102e357600080fd5b506102fe60048036038101906102f99190611d3f565b61097f565b005b34801561030c57600080fd5b5061032760048036038101906103229190611e20565b610995565b005b34801561033557600080fd5b50610350600480360381019061034b91906119f6565b6109f7565b60405161035d919061199e565b60405180910390f35b34801561037257600080fd5b5061038d60048036038101906103889190611ea3565b610b09565b60405161039a91906118f3565b60405180910390f35b60007f80ac58cd000000000000000000000000000000000000000000000000000000007bffffffffffffffffffffffffffffffffffffffffffffffffffffffff1916827bffffffffffffffffffffffffffffffffffffffffffffffffffffffff1916148061046e57507f5b5e139f000000000000000000000000000000000000000000000000000000007bffffffffffffffffffffffffffffffffffffffffffffffffffffffff1916827bffffffffffffffffffffffffffffffffffffffffffffffffffffffff1916145b8061047e575061047d82610b9d565b5b9050919050565b60606000805461049490611f12565b80601f01602080910402602001604051908101604052809291908181526020018280546104c090611f12565b801561050d5780601f106104e25761010080835404028352916020019161050d565b820191906000526020600020905b8154815290600101906020018083116104f057829003601f168201915b5050505050905090565b600061052282610c07565b6004600083815260200190815260200160002060009054906101000a900473ffffffffffffffffffffffffffffffffffffffff169050919050565b600061056882610785565b90508073ffffffffffffffffffffffffffffffffffffffff168373ffffffffffffffffffffffffffffffffffffffff16036105d8576040517f08c379a00000000000000000000000000000000000000000000000000000000081526004016105cf90611fb5565b60405180910390fd5b8073ffffffffffffffffffffffffffffffffffffffff166105f7610c52565b73ffffffffffffffffffffffffffffffffffffffff161480610626575061062581610620610c52565b610b09565b5b610665576040517f08c379a000000000000000000000000000000000000000000000000000000000815260040161065c90612047565b60405180910390fd5b61066f8383610c5a565b505050565b61068561067f610c52565b82610d13565b6106c4576040517f08c379a00000000000000000000000000000000000000000000000000000000081526004016106bb906120d9565b60405180910390fd5b6106cf838383610da8565b505050565b6106ef83838360405180602001604052806000815250610995565b505050565b60003373ffffffffffffffffffffffffffffffffffffffff16600860009054906101000a900473ffffffffffffffffffffffffffffffffffffffff1673ffffffffffffffffffffffffffffffffffffffff161461075057600080fd5b61075a600761100e565b60006107666007611024565b90506107723382611032565b61077c818461120b565b80915050919050565b6000806002600084815260200190815260200160002060009054906101000a900473ffffffffffffffffffffffffffffffffffffffff169050600073ffffffffffffffffffffffffffffffffffffffff168173ffffffffffffffffffffffffffffffffffffffff160361082d576040517f08c379a000000000000000000000000000000000000000000000000000000000815260040161082490612145565b60405180910390fd5b80915050919050565b60008073ffffffffffffffffffffffffffffffffffffffff168273ffffffffffffffffffffffffffffffffffffffff16036108a6576040517f08c379a000000000000000000000000000000000000000000000000000000000815260040161089d906121d7565b60405180910390fd5b600360008373ffffffffffffffffffffffffffffffffffffffff1673ffffffffffffffffffffffffffffffffffffffff168152602001908152602001600020549050919050565b6060600180546108fc90611f12565b80601f016020809104026020016040519081016040528092919081815260200182805461092890611f12565b80156109755780601f1061094a57610100808354040283529160200191610975565b820191906000526020600020905b81548152906001019060200180831161095857829003601f168201915b5050505050905090565b61099161098a610c52565b8383611278565b5050565b6109a66109a0610c52565b83610d13565b6109e5576040517f08c379a00000000000000000000000000000000000000000000000000000000081526004016109dc906120d9565b60405180910390fd5b6109f1848484846113e4565b50505050565b6060610a0282610c07565b6000600660008481526020019081526020016000208054610a2290611f12565b80601f0160208091040260200160405190810160405280929190818152602001828054610a4e90611f12565b8015610a9b5780601f10610a7057610100808354040283529160200191610a9b565b820191906000526020600020905b815481529060010190602001808311610a7e57829003601f168201915b505050505090506000610aac611440565b90506000815103610ac1578192505050610b04565b600082511115610af6578082604051602001610ade929190612233565b60405160208183030381529060405292505050610b04565b610aff84611457565b925050505b919050565b6000600560008473ffffffffffffffffffffffffffffffffffffffff1673ffffffffffffffffffffffffffffffffffffffff16815260200190815260200160002060008373ffffffffffffffffffffffffffffffffffffffff1673ffffffffffffffffffffffffffffffffffffffff16815260200190815260200160002060009054906101000a900460ff16905092915050565b60007f01ffc9a7000000000000000000000000000000000000000000000000000000007bffffffffffffffffffffffffffffffffffffffffffffffffffffffff1916827bffffffffffffffffffffffffffffffffffffffffffffffffffffffff1916149050919050565b610c10816114bf565b610c4f576040517f08c379a0000000000000000000000000000000000000000000000000000000008152600401610c4690612145565b60405180910390fd5b50565b600033905090565b816004600083815260200190815260200160002060006101000a81548173ffffffffffffffffffffffffffffffffffffffff021916908373ffffffffffffffffffffffffffffffffffffffff160217905550808273ffffffffffffffffffffffffffffffffffffffff16610ccd83610785565b73ffffffffffffffffffffffffffffffffffffffff167f8c5be1e5ebec7d5bd14f71427d1e84f3dd0314c0f7b2291e5b200ac8c7c3b92560405160405180910390a45050565b600080610d1f83610785565b90508073ffffffffffffffffffffffffffffffffffffffff168473ffffffffffffffffffffffffffffffffffffffff161480610d615750610d608185610b09565b5b80610d9f57508373ffffffffffffffffffffffffffffffffffffffff16610d8784610517565b73ffffffffffffffffffffffffffffffffffffffff16145b91505092915050565b8273ffffffffffffffffffffffffffffffffffffffff16610dc882610785565b73ffffffffffffffffffffffffffffffffffffffff1614610e1e576040517f08c379a0000000000000000000000000000000000000000000000000000000008152600401610e15906122c9565b60405180910390fd5b600073ffffffffffffffffffffffffffffffffffffffff168273ffffffffffffffffffffffffffffffffffffffff1603610e8d576040517f08c379a0000000000000000000000000000000000000000000000000000000008152600401610e849061235b565b60405180910390fd5b610e9883838361152b565b610ea3600082610c5a565b6001600360008573ffffffffffffffffffffffffffffffffffffffff1673ffffffffffffffffffffffffffffffffffffffff1681526020019081526020016000206000828254610ef391906123aa565b925050819055506001600360008473ffffffffffffffffffffffffffffffffffffffff1673ffffffffffffffffffffffffffffffffffffffff1681526020019081526020016000206000828254610f4a91906123de565b92505081905550816002600083815260200190815260200160002060006101000a81548173ffffffffffffffffffffffffffffffffffffffff021916908373ffffffffffffffffffffffffffffffffffffffff160217905550808273ffffffffffffffffffffffffffffffffffffffff168473ffffffffffffffffffffffffffffffffffffffff167fddf252ad1be2c89b69c2b068fc378daa952ba7f163c4a11628f55a4df523b3ef60405160405180910390a4611009838383611530565b505050565b6001816000016000828254019250508190555050565b600081600001549050919050565b600073ffffffffffffffffffffffffffffffffffffffff168273ffffffffffffffffffffffffffffffffffffffff16036110a1576040517f08c379a00000000000000000000000000000000000000000000000000000000081526004016110989061245e565b60405180910390fd5b6110aa816114bf565b156110ea576040517f08c379a00000000000000000000000000000000000000000000000000000000081526004016110e1906124ca565b60405180910390fd5b6110f66000838361152b565b6001600360008473ffffffffffffffffffffffffffffffffffffffff1673ffffffffffffffffffffffffffffffffffffffff168152602001908152602001600020600082825461114691906123de565b92505081905550816002600083815260200190815260200160002060006101000a81548173ffffffffffffffffffffffffffffffffffffffff021916908373ffffffffffffffffffffffffffffffffffffffff160217905550808273ffffffffffffffffffffffffffffffffffffffff16600073ffffffffffffffffffffffffffffffffffffffff167fddf252ad1be2c89b69c2b068fc378daa952ba7f163c4a11628f55a4df523b3ef60405160405180910390a461120760008383611530565b5050565b611214826114bf565b611253576040517f08c379a000000000000000000000000000000000000000000000000000000000815260040161124a9061255c565b60405180910390fd5b806006600084815260200190815260200160002090816112739190612728565b505050565b8173ffffffffffffffffffffffffffffffffffffffff168373ffffffffffffffffffffffffffffffffffffffff16036112e6576040517f08c379a00000000000000000000000000000000000000000000000000000000081526004016112dd90612846565b60405180910390fd5b80600560008573ffffffffffffffffffffffffffffffffffffffff1673ffffffffffffffffffffffffffffffffffffffff16815260200190815260200160002060008473ffffffffffffffffffffffffffffffffffffffff1673ffffffffffffffffffffffffffffffffffffffff16815260200190815260200160002060006101000a81548160ff0219169083151502179055508173ffffffffffffffffffffffffffffffffffffffff168373ffffffffffffffffffffffffffffffffffffffff167f17307eab39ab6107e8899845ad3d59bd9653f200f220920489ca2b5937696c31836040516113d791906118f3565b60405180910390a3505050565b6113ef848484610da8565b6113fb84848484611535565b61143a576040517f08c379a0000000000000000000000000000000000000000000000000000000008152600401611431906128d8565b60405180910390fd5b50505050565b606060405180602001604052806000815250905090565b606061146282610c07565b600061146c611440565b9050600081511161148c57604051806020016040528060008152506114b7565b80611496846116bc565b6040516020016114a7929190612233565b6040516020818303038152906040525b915050919050565b60008073ffffffffffffffffffffffffffffffffffffffff166002600084815260200190815260200160002060009054906101000a900473ffffffffffffffffffffffffffffffffffffffff1673ffffffffffffffffffffffffffffffffffffffff1614159050919050565b505050565b505050565b60006115568473ffffffffffffffffffffffffffffffffffffffff1661181c565b156116af578373ffffffffffffffffffffffffffffffffffffffff1663150b7a0261157f610c52565b8786866040518563ffffffff1660e01b81526004016115a1949392919061294d565b6020604051808303816000875af19250505080156115dd57506040513d601f19601f820116820180604052508101906115da91906129ae565b60015b61165f573d806000811461160d576040519150601f19603f3d011682016040523d82523d6000602084013e611612565b606091505b506000815103611657576040517f08c379a000000000000000000000000000000000000000000000000000000000815260040161164e906128d8565b60405180910390fd5b805181602001fd5b63150b7a0260e01b7bffffffffffffffffffffffffffffffffffffffffffffffffffffffff1916817bffffffffffffffffffffffffffffffffffffffffffffffffffffffff1916149150506116b4565b600190505b949350505050565b606060008203611703576040518060400160405280600181526020017f30000000000000000000000000000000000000000000000000000000000000008152509050611817565b600082905060005b6000821461173557808061171e906129db565b915050600a8261172e9190612a52565b915061170b565b60008167ffffffffffffffff81111561175157611750611b48565b5b6040519080825280601f01601f1916602001820160405280156117835781602001600182028036833780820191505090505b5090505b600085146118105760018261179c91906123aa565b9150600a856117ab9190612a83565b60306117b791906123de565b60f81b8183815181106117cd576117cc612ab4565b5b60200101907effffffffffffffffffffffffffffffffffffffffffffffffffffffffffffff1916908160001a905350600a856118099190612a52565b9450611787565b8093505050505b919050565b6000808273ffffffffffffffffffffffffffffffffffffffff163b119050919050565b6000604051905090565b600080fd5b600080fd5b60007fffffffff0000000000000000000000000000000000000000000000000000000082169050919050565b61188881611853565b811461189357600080fd5b50565b6000813590506118a58161187f565b92915050565b6000602082840312156118c1576118c0611849565b5b60006118cf84828501611896565b91505092915050565b60008115159050919050565b6118ed816118d8565b82525050565b600060208201905061190860008301846118e4565b92915050565b600081519050919050565b600082825260208201905092915050565b60005b8381101561194857808201518184015260208101905061192d565b60008484015250505050565b6000601f19601f8301169050919050565b60006119708261190e565b61197a8185611919565b935061198a81856020860161192a565b61199381611954565b840191505092915050565b600060208201905081810360008301526119b88184611965565b905092915050565b6000819050919050565b6119d3816119c0565b81146119de57600080fd5b50565b6000813590506119f0816119ca565b92915050565b600060208284031215611a0c57611a0b611849565b5b6000611a1a848285016119e1565b91505092915050565b600073ffffffffffffffffffffffffffffffffffffffff82169050919050565b6000611a4e82611a23565b9050919050565b611a5e81611a43565b82525050565b6000602082019050611a796000830184611a55565b92915050565b611a8881611a43565b8114611a9357600080fd5b50565b600081359050611aa581611a7f565b92915050565b60008060408385031215611ac257611ac1611849565b5b6000611ad085828601611a96565b9250506020611ae1858286016119e1565b9150509250929050565b600080600060608486031215611b0457611b03611849565b5b6000611b1286828701611a96565b9350506020611b2386828701611a96565b9250506040611b34868287016119e1565b9150509250925092565b600080fd5b600080fd5b7f4e487b7100000000000000000000000000000000000000000000000000000000600052604160045260246000fd5b611b8082611954565b810181811067ffffffffffffffff82111715611b9f57611b9e611b48565b5b80604052505050565b6000611bb261183f565b9050611bbe8282611b77565b919050565b600067ffffffffffffffff821115611bde57611bdd611b48565b5b611be782611954565b9050602081019050919050565b82818337600083830152505050565b6000611c16611c1184611bc3565b611ba8565b905082815260208101848484011115611c3257611c31611b43565b5b611c3d848285611bf4565b509392505050565b600082601f830112611c5a57611c59611b3e565b5b8135611c6a848260208601611c03565b91505092915050565b600060208284031215611c8957611c88611849565b5b600082013567ffffffffffffffff811115611ca757611ca661184e565b5b611cb384828501611c45565b91505092915050565b611cc5816119c0565b82525050565b6000602082019050611ce06000830184611cbc565b92915050565b600060208284031215611cfc57611cfb611849565b5b6000611d0a84828501611a96565b91505092915050565b611d1c816118d8565b8114611d2757600080fd5b50565b600081359050611d3981611d13565b92915050565b60008060408385031215611d5657611d55611849565b5b6000611d6485828601611a96565b9250506020611d7585828601611d2a565b9150509250929050565b600067ffffffffffffffff821115611d9a57611d99611b48565b5b611da382611954565b9050602081019050919050565b6000611dc3611dbe84611d7f565b611ba8565b905082815260208101848484011115611ddf57611dde611b43565b5b611dea848285611bf4565b509392505050565b600082601f830112611e0757611e06611b3e565b5b8135611e17848260208601611db0565b91505092915050565b60008060008060808587031215611e3a57611e39611849565b5b6000611e4887828801611a96565b9450506020611e5987828801611a96565b9350506040611e6a878288016119e1565b925050606085013567ffffffffffffffff811115611e8b57611e8a61184e565b5b611e9787828801611df2565b91505092959194509250565b60008060408385031215611eba57611eb9611849565b5b6000611ec885828601611a96565b9250506020611ed985828601611a96565b9150509250929050565b7f4e487b7100000000000000000000000000000000000000000000000000000000600052602260045260246000fd5b60006002820490506001821680611f2a57607f821691505b602082108103611f3d57611f3c611ee3565b5b50919050565b7f4552433732313a20617070726f76616c20746f2063757272656e74206f776e6560008201527f7200000000000000000000000000000000000000000000000000000000000000602082015250565b6000611f9f602183611919565b9150611faa82611f43565b604082019050919050565b60006020820190508181036000830152611fce81611f92565b9050919050565b7f4552433732313a20617070726f76652063616c6c6572206973206e6f7420746f60008201527f6b656e206f776e6572206e6f7220617070726f76656420666f7220616c6c0000602082015250565b6000612031603e83611919565b915061203c82611fd5565b604082019050919050565b6000602082019050818103600083015261206081612024565b9050919050565b7f4552433732313a2063616c6c6572206973206e6f7420746f6b656e206f776e6560008201527f72206e6f7220617070726f766564000000000000000000000000000000000000602082015250565b60006120c3602e83611919565b91506120ce82612067565b604082019050919050565b600060208201905081810360008301526120f2816120b6565b9050919050565b7f4552433732313a20696e76616c696420746f6b656e2049440000000000000000600082015250565b600061212f601883611919565b915061213a826120f9565b602082019050919050565b6000602082019050818103600083015261215e81612122565b9050919050565b7f4552433732313a2061646472657373207a65726f206973206e6f74206120766160008201527f6c6964206f776e65720000000000000000000000000000000000000000000000602082015250565b60006121c1602983611919565b91506121cc82612165565b604082019050919050565b600060208201905081810360008301526121f0816121b4565b9050919050565b600081905092915050565b600061220d8261190e565b61221781856121f7565b935061222781856020860161192a565b80840191505092915050565b600061223f8285612202565b915061224b8284612202565b91508190509392505050565b7f4552433732313a207472616e736665722066726f6d20696e636f72726563742060008201527f6f776e6572000000000000000000000000000000000000000000000000000000602082015250565b60006122b3602583611919565b91506122be82612257565b604082019050919050565b600060208201905081810360008301526122e2816122a6565b9050919050565b7f4552433732313a207472616e7366657220746f20746865207a65726f2061646460008201527f7265737300000000000000000000000000000000000000000000000000000000602082015250565b6000612345602483611919565b9150612350826122e9565b604082019050919050565b6000602082019050818103600083015261237481612338565b9050919050565b7f4e487b7100000000000000000000000000000000000000000000000000000000600052601160045260246000fd5b60006123b5826119c0565b91506123c0836119c0565b92508282039050818111156123d8576123d761237b565b5b92915050565b60006123e9826119c0565b91506123f4836119c0565b925082820190508082111561240c5761240b61237b565b5b92915050565b7f4552433732313a206d696e7420746f20746865207a65726f2061646472657373600082015250565b6000612448602083611919565b915061245382612412565b602082019050919050565b600060208201905081810360008301526124778161243b565b9050919050565b7f4552433732313a20746f6b656e20616c7265616479206d696e74656400000000600082015250565b60006124b4601c83611919565b91506124bf8261247e565b602082019050919050565b600060208201905081810360008301526124e3816124a7565b9050919050565b7f45524337323155524953746f726167653a2055524920736574206f66206e6f6e60008201527f6578697374656e7420746f6b656e000000000000000000000000000000000000602082015250565b6000612546602e83611919565b9150612551826124ea565b604082019050919050565b6000602082019050818103600083015261257581612539565b9050919050565b60008190508160005260206000209050919050565b60006020601f8301049050919050565b600082821b905092915050565b6000600883026125de7fffffffffffffffffffffffffffffffffffffffffffffffffffffffffffffffff826125a1565b6125e886836125a1565b95508019841693508086168417925050509392505050565b6000819050919050565b600061262561262061261b846119c0565b612600565b6119c0565b9050919050565b6000819050919050565b61263f8361260a565b61265361264b8261262c565b8484546125ae565b825550505050565b600090565b61266861265b565b612673818484612636565b505050565b5b818110156126975761268c600082612660565b600181019050612679565b5050565b601f8211156126dc576126ad8161257c565b6126b684612591565b810160208510156126c5578190505b6126d96126d185612591565b830182612678565b50505b505050565b600082821c905092915050565b60006126ff600019846008026126e1565b1980831691505092915050565b600061271883836126ee565b9150826002028217905092915050565b6127318261190e565b67ffffffffffffffff81111561274a57612749611b48565b5b6127548254611f12565b61275f82828561269b565b600060209050601f8311600181146127925760008415612780578287015190505b61278a858261270c565b8655506127f2565b601f1984166127a08661257c565b60005b828110156127c8578489015182556001820191506020850194506020810190506127a3565b868310156127e557848901516127e1601f8916826126ee565b8355505b6001600288020188555050505b505050505050565b7f4552433732313a20617070726f766520746f2063616c6c657200000000000000600082015250565b6000612830601983611919565b915061283b826127fa565b602082019050919050565b6000602082019050818103600083015261285f81612823565b9050919050565b7f4552433732313a207472616e7366657220746f206e6f6e20455243373231526560008201527f63656976657220696d706c656d656e7465720000000000000000000000000000602082015250565b60006128c2603283611919565b91506128cd82612866565b604082019050919050565b600060208201905081810360008301526128f1816128b5565b9050919050565b600081519050919050565b600082825260208201905092915050565b600061291f826128f8565b6129298185612903565b935061293981856020860161192a565b61294281611954565b840191505092915050565b60006080820190506129626000830187611a55565b61296f6020830186611a55565b61297c6040830185611cbc565b818103606083015261298e8184612914565b905095945050505050565b6000815190506129a88161187f565b92915050565b6000602082840312156129c4576129c3611849565b5b60006129d284828501612999565b91505092915050565b60006129e6826119c0565b91507fffffffffffffffffffffffffffffffffffffffffffffffffffffffffffffffff8203612a1857612a1761237b565b5b600182019050919050565b7f4e487b7100000000000000000000000000000000000000000000000000000000600052601260045260246000fd5b6000612a5d826119c0565b9150612a68836119c0565b925082612a7857612a77612a23565b5b828204905092915050565b6000612a8e826119c0565b9150612a99836119c0565b925082612aa957612aa8612a23565b5b828206905092915050565b7f4e487b7100000000000000000000000000000000000000000000000000000000600052603260045260246000fdfea26469706673582212203573bb376e11285391e0a000cb1496d267aaa22655d4eec8f090369a40416b5964736f6c63430008110033",
  "immutableReferences": {},
  "source": "// SPDX-License-Identifier: MIT\r\npragma solidity ^0.8.3;\r\n\r\nimport \"@openzeppelin/contracts/utils/Counters.sol\";\r\nimport \"@openzeppelin/contracts/token/ERC721/extensions/ERC721URIStorage.sol\";\r\nimport \"@openzeppelin/contracts/token/ERC721/ERC721.sol\";\r\n\r\ncontract NFT is ERC721URIStorage { \r\n\r\n    using Counters for Counters.Counter; \r\n    Counters.Counter private _tokenIds;\r\n    address owner;\r\n\r\n    constructor() ERC721(\"NFT by Tomi204\", \"ENFT\") {\r\n        owner = payable (msg.sender);\r\n    }\r\n\r\n    function createToken(string memory tokenURI) public payable returns (uint) {\r\n        require(owner == msg.sender);\r\n        _tokenIds.increment();\r\n        uint256 newItemId = _tokenIds.current();\r\n\r\n        _mint(msg.sender, newItemId);\r\n        _setTokenURI(newItemId, tokenURI);\r\n\r\n        return newItemId;\r\n    }\r\n}",
  "sourcePath": "C:\\Users\\tomi2\\Desktop\\smarts contracts\\NFT\\contracts\\NFT.sol",
  "compiler": {
    "name": "solc",
    "version": "0.8.17+commit.8df45f5f.Emscripten.clang"
  },
  "schemaVersion": "3.4.10",
  "updatedAt": "2022-10-11T20:42:06.555Z",
  "devdoc": {
    "kind": "dev",
    "methods": {
      "approve(address,uint256)": {
        "details": "See {IERC721-approve}."
      },
      "balanceOf(address)": {
        "details": "See {IERC721-balanceOf}."
      },
      "getApproved(uint256)": {
        "details": "See {IERC721-getApproved}."
      },
      "isApprovedForAll(address,address)": {
        "details": "See {IERC721-isApprovedForAll}."
      },
      "name()": {
        "details": "See {IERC721Metadata-name}."
      },
      "ownerOf(uint256)": {
        "details": "See {IERC721-ownerOf}."
      },
      "safeTransferFrom(address,address,uint256)": {
        "details": "See {IERC721-safeTransferFrom}."
      },
      "safeTransferFrom(address,address,uint256,bytes)": {
        "details": "See {IERC721-safeTransferFrom}."
      },
      "setApprovalForAll(address,bool)": {
        "details": "See {IERC721-setApprovalForAll}."
      },
      "supportsInterface(bytes4)": {
        "details": "See {IERC165-supportsInterface}."
      },
      "symbol()": {
        "details": "See {IERC721Metadata-symbol}."
      },
      "tokenURI(uint256)": {
        "details": "See {IERC721Metadata-tokenURI}."
      },
      "transferFrom(address,address,uint256)": {
        "details": "See {IERC721-transferFrom}."
      }
    },
    "version": 1
  },
  "userdoc": {
    "kind": "user",
    "methods": {},
    "version": 1
  }
}